{
  "contractName": "Tutorial",
  "abi": [
    {
      "inputs": [
        {
          "internalType": "contract TutorialManager",
          "name": "_tutorialManager",
          "type": "address"
        },
        {
          "internalType": "uint256",
          "name": "_index",
          "type": "uint256"
        },
        {
          "internalType": "uint256",
          "name": "_price",
          "type": "uint256"
        }
      ],
      "stateMutability": "nonpayable",
      "type": "constructor"
    },
    {
      "inputs": [],
      "name": "amountPaid",
      "outputs": [
        {
          "internalType": "uint256",
          "name": "",
          "type": "uint256"
        }
      ],
      "stateMutability": "view",
      "type": "function"
    },
    {
      "inputs": [],
      "name": "index",
      "outputs": [
        {
          "internalType": "uint256",
          "name": "",
          "type": "uint256"
        }
      ],
      "stateMutability": "view",
      "type": "function"
    },
    {
      "inputs": [],
      "name": "price",
      "outputs": [
        {
          "internalType": "uint256",
          "name": "",
          "type": "uint256"
        }
      ],
      "stateMutability": "view",
      "type": "function"
    },
    {
      "inputs": [],
      "name": "tutorialManager",
      "outputs": [
        {
          "internalType": "contract TutorialManager",
          "name": "",
          "type": "address"
        }
      ],
      "stateMutability": "view",
      "type": "function"
    },
    {
      "stateMutability": "payable",
      "type": "receive"
    }
  ],
  "bytecode": "0x608060405234801561001057600080fd5b5060405161073d38038061073d833981810160405281019061003291906100b3565b816000819055508060018190555082600360006101000a81548173ffffffffffffffffffffffffffffffffffffffff021916908373ffffffffffffffffffffffffffffffffffffffff16021790555050505061017e565b60008151905061009881610150565b92915050565b6000815190506100ad81610167565b92915050565b6000806000606084860312156100c857600080fd5b60006100d686828701610089565b93505060206100e78682870161009e565b92505060406100f88682870161009e565b9150509250925092565b600061010d82610126565b9050919050565b600061011f82610102565b9050919050565b600073ffffffffffffffffffffffffffffffffffffffff82169050919050565b6000819050919050565b61015981610114565b811461016457600080fd5b50565b61017081610146565b811461017b57600080fd5b50565b6105b08061018d6000396000f3fe6080604052600436106100435760003560e01c8063216340c31461020d5780632986c0e514610238578063a035b1fe14610263578063e70e137d1461028e57610208565b366102085760006002541461008d576040517f08c379a000000000000000000000000000000000000000000000000000000000815260040161008490610412565b60405180910390fd5b346002600082825461009f9190610474565b925050819055506000600360009054906101000a900473ffffffffffffffffffffffffffffffffffffffff1673ffffffffffffffffffffffffffffffffffffffff16346000546040516024016100f59190610432565b6040516020818303038152906040527f9985f797000000000000000000000000000000000000000000000000000000007bffffffffffffffffffffffffffffffffffffffffffffffffffffffff19166020820180517bffffffffffffffffffffffffffffffffffffffffffffffffffffffff838183161783525050505060405161017f91906103c0565b60006040518083038185875af1925050503d80600081146101bc576040519150601f19603f3d011682016040523d82523d6000602084013e6101c1565b606091505b5050905080610205576040517f08c379a00000000000000000000000000000000000000000000000000000000081526004016101fc906103f2565b60405180910390fd5b50005b600080fd5b34801561021957600080fd5b506102226102b9565b60405161022f9190610432565b60405180910390f35b34801561024457600080fd5b5061024d6102bf565b60405161025a9190610432565b60405180910390f35b34801561026f57600080fd5b506102786102c5565b6040516102859190610432565b60405180910390f35b34801561029a57600080fd5b506102a36102cb565b6040516102b091906103d7565b60405180910390f35b60025481565b60005481565b60015481565b600360009054906101000a900473ffffffffffffffffffffffffffffffffffffffff1681565b60006102fc8261044d565b6103068185610458565b9350610316818560208601610518565b80840191505092915050565b61032b816104f4565b82525050565b600061033e601c83610463565b91507f507572636861736520776173206e6f74207375636365737366756c21000000006000830152602082019050919050565b600061037e601583610463565b91507f4d757374207061792066756c6c20616d6f756e742e00000000000000000000006000830152602082019050919050565b6103ba816104ea565b82525050565b60006103cc82846102f1565b915081905092915050565b60006020820190506103ec6000830184610322565b92915050565b6000602082019050818103600083015261040b81610331565b9050919050565b6000602082019050818103600083015261042b81610371565b9050919050565b600060208201905061044760008301846103b1565b92915050565b600081519050919050565b600081905092915050565b600082825260208201905092915050565b600061047f826104ea565b915061048a836104ea565b9250827fffffffffffffffffffffffffffffffffffffffffffffffffffffffffffffffff038211156104bf576104be61054b565b5b828201905092915050565b600073ffffffffffffffffffffffffffffffffffffffff82169050919050565b6000819050919050565b60006104ff82610506565b9050919050565b6000610511826104ca565b9050919050565b60005b8381101561053657808201518184015260208101905061051b565b83811115610545576000848401525b50505050565b7f4e487b7100000000000000000000000000000000000000000000000000000000600052601160045260246000fdfea26469706673582212209481260ae6ed9286c2c80c8fd9c4b9312a0e838bd956772a16476469bb0d65bc64736f6c63430008000033",
  "immutableReferences": {},
  "source": "pragma solidity 0.8.0;\r\nimport \"./TutorialManager.sol\";\r\n\r\n//Tutorial smart contract will handling the payment of each tutorial\r\ncontract Tutorial {\r\n   uint public index;\r\n   uint public price;\r\n   uint public amountPaid;\r\n   \r\n   TutorialManager public tutorialManager;\r\n   \r\n   constructor(TutorialManager _tutorialManager, uint _index, uint _price) public {\r\n       index = _index;\r\n       price = _price;\r\n       tutorialManager = _tutorialManager;\r\n   }\r\n   \r\n   receive() external payable {\r\n       require(amountPaid == 0, \"Must pay full amount.\");\r\n       amountPaid += msg.value;\r\n       (bool success, ) = address(tutorialManager).call{value: msg.value}(abi.encodeWithSignature(\"payForTutorial(uint256)\", index));\r\n       require(success, \"Purchase was not successful!\");\r\n   }\r\n   \r\n}\r\n",
  "sourcePath": "C:\\Users\\devmt\\blockchain_bootcamp\\truffle_tutorial_manager\\contracts\\Tutorial.sol",
  "compiler": {
    "name": "solc",
    "version": "0.8.0+commit.c7dfd78e.Emscripten.clang"
  },
  "schemaVersion": "3.4.3",
  "updatedAt": "2021-11-06T21:05:50.283Z",
  "networkType": "ethereum",
  "devdoc": {
    "kind": "dev",
    "methods": {},
    "version": 1
  },
  "userdoc": {
    "kind": "user",
    "methods": {},
    "version": 1
  }
}