{
  "contractName": "TutorialManager",
  "abi": [
    {
      "anonymous": false,
      "inputs": [
        {
          "indexed": true,
          "internalType": "uint256",
          "name": "_tutorialId",
          "type": "uint256"
        },
        {
          "indexed": true,
          "internalType": "uint256",
          "name": "_index",
          "type": "uint256"
        },
        {
          "indexed": true,
          "internalType": "enum TutorialManager.TutorialState",
          "name": "_tutorialState",
          "type": "uint8"
        }
      ],
      "name": "TutorialStateChanges",
      "type": "event"
    },
    {
      "inputs": [],
      "name": "_owner",
      "outputs": [
        {
          "internalType": "address",
          "name": "",
          "type": "address"
        }
      ],
      "stateMutability": "view",
      "type": "function",
      "constant": true
    },
    {
      "inputs": [],
      "name": "isOwner",
      "outputs": [
        {
          "internalType": "bool",
          "name": "",
          "type": "bool"
        }
      ],
      "stateMutability": "view",
      "type": "function",
      "constant": true
    },
    {
      "inputs": [
        {
          "internalType": "uint256",
          "name": "",
          "type": "uint256"
        }
      ],
      "name": "tutorials",
      "outputs": [
        {
          "internalType": "contract Tutorial",
          "name": "_tutorial",
          "type": "address"
        },
        {
          "internalType": "uint256",
          "name": "_tutorialId",
          "type": "uint256"
        },
        {
          "internalType": "uint256",
          "name": "_tutorialPrice",
          "type": "uint256"
        },
        {
          "internalType": "enum TutorialManager.TutorialState",
          "name": "_tutorialState",
          "type": "uint8"
        }
      ],
      "stateMutability": "view",
      "type": "function",
      "constant": true
    },
    {
      "inputs": [
        {
          "internalType": "uint256",
          "name": "_tutorialPrice",
          "type": "uint256"
        },
        {
          "internalType": "uint256",
          "name": "_tutorialId",
          "type": "uint256"
        }
      ],
      "name": "createTutorial",
      "outputs": [],
      "stateMutability": "nonpayable",
      "type": "function"
    },
    {
      "inputs": [
        {
          "internalType": "uint256",
          "name": "_index",
          "type": "uint256"
        }
      ],
      "name": "payForTutorial",
      "outputs": [],
      "stateMutability": "payable",
      "type": "function",
      "payable": true
    },
    {
      "inputs": [
        {
          "internalType": "uint256",
          "name": "_index",
          "type": "uint256"
        }
      ],
      "name": "finishTutorial",
      "outputs": [],
      "stateMutability": "nonpayable",
      "type": "function"
    }
  ],
  "bytecode": "0x608060405234801561001057600080fd5b50336000806101000a81548173ffffffffffffffffffffffffffffffffffffffff021916908373ffffffffffffffffffffffffffffffffffffffff1602179055506114f6806100606000396000f3fe6080604052600436106100555760003560e01c80634409a0e81461005a5780638f32d59b1461009a5780639985f797146100c5578063a726cd24146100e1578063b2bdfa7b1461010a578063d932a2e714610135575b600080fd5b34801561006657600080fd5b50610081600480360381019061007c9190610888565b61015e565b6040516100919493929190610b26565b60405180910390f35b3480156100a657600080fd5b506100af6101bb565b6040516100bc9190610ad4565b60405180910390f35b6100df60048036038101906100da9190610888565b610211565b005b3480156100ed57600080fd5b50610108600480360381019061010391906108b1565b610424565b005b34801561011657600080fd5b5061011f610640565b60405161012c9190610ab9565b60405180910390f35b34801561014157600080fd5b5061015c60048036038101906101579190610888565b610664565b005b60016020528060005260406000206000915090508060000160009054906101000a900473ffffffffffffffffffffffffffffffffffffffff16908060010154908060020154908060030160009054906101000a900460ff16905084565b60003373ffffffffffffffffffffffffffffffffffffffff1660008054906101000a900473ffffffffffffffffffffffffffffffffffffffff1673ffffffffffffffffffffffffffffffffffffffff1614905090565b6000600281111561024b577f4e487b7100000000000000000000000000000000000000000000000000000000600052602160045260246000fd5b6001600083815260200190815260200160002060030160009054906101000a900460ff1660028111156102a7577f4e487b7100000000000000000000000000000000000000000000000000000000600052602160045260246000fd5b146102e7576040517f08c379a00000000000000000000000000000000000000000000000000000000081526004016102de90610b8b565b60405180910390fd5b3460016000838152602001908152602001600020600201541461033f576040517f08c379a000000000000000000000000000000000000000000000000000000000815260040161033690610bab565b60405180910390fd5b600180600083815260200190815260200160002060030160006101000a81548160ff0219169083600281111561039e577f4e487b7100000000000000000000000000000000000000000000000000000000600052602160045260246000fd5b0217905550600160028111156103dd577f4e487b7100000000000000000000000000000000000000000000000000000000600052602160045260246000fd5b8160016000848152602001908152602001600020600101547f31defbdfbb8850aec5b72786248b4c0b8e359e0799d41f442fe77e858b06d21360405160405180910390a450565b61042c6101bb565b61046b576040517f08c379a000000000000000000000000000000000000000000000000000000000815260040161046290610b6b565b60405180910390fd5b6000306002548460405161047e90610866565b61048a93929190610aef565b604051809103906000f0801580156104a6573d6000803e3d6000fd5b5090508060016000600254815260200190815260200160002060000160006101000a81548173ffffffffffffffffffffffffffffffffffffffff021916908373ffffffffffffffffffffffffffffffffffffffff16021790555082600160006002548152602001908152602001600020600201819055508160016000600254815260200190815260200160002060010181905550600060016000600254815260200190815260200160002060030160006101000a81548160ff0219169083600281111561059c577f4e487b7100000000000000000000000000000000000000000000000000000000600052602160045260246000fd5b0217905550600060028111156105db577f4e487b7100000000000000000000000000000000000000000000000000000000600052602160045260246000fd5b600254600160006002548152602001908152602001600020600101547f31defbdfbb8850aec5b72786248b4c0b8e359e0799d41f442fe77e858b06d21360405160405180910390a46002600081548092919061063690610cb1565b9190505550505050565b60008054906101000a900473ffffffffffffffffffffffffffffffffffffffff1681565b61066c6101bb565b6106ab576040517f08c379a00000000000000000000000000000000000000000000000000000000081526004016106a290610b6b565b60405180910390fd5b600160028111156106e5577f4e487b7100000000000000000000000000000000000000000000000000000000600052602160045260246000fd5b6001600083815260200190815260200160002060030160009054906101000a900460ff166002811115610741577f4e487b7100000000000000000000000000000000000000000000000000000000600052602160045260246000fd5b14610781576040517f08c379a000000000000000000000000000000000000000000000000000000000815260040161077890610bcb565b60405180910390fd5b60026001600083815260200190815260200160002060030160006101000a81548160ff021916908360028111156107e1577f4e487b7100000000000000000000000000000000000000000000000000000000600052602160045260246000fd5b021790555060028081111561081f577f4e487b7100000000000000000000000000000000000000000000000000000000600052602160045260246000fd5b8160016000848152602001908152602001600020600101547f31defbdfbb8850aec5b72786248b4c0b8e359e0799d41f442fe77e858b06d21360405160405180910390a450565b61073d80610d8483390190565b60008135905061088281610d6c565b92915050565b60006020828403121561089a57600080fd5b60006108a884828501610873565b91505092915050565b600080604083850312156108c457600080fd5b60006108d285828601610873565b92505060206108e385828601610873565b9150509250929050565b6108f681610bfc565b82525050565b61090581610c0e565b82525050565b61091481610c57565b82525050565b61092381610c7b565b82525050565b61093281610c9f565b82525050565b6000610945602783610beb565b91507f596f7520617265206e6f7420617574686f72697a656420746f2073656e64207060008301527f61796d656e742e000000000000000000000000000000000000000000000000006020830152604082019050919050565b60006109ab601983610beb565b91507f5475746f7269616c206973207061696420616c72656164792e000000000000006000830152602082019050919050565b60006109eb602a83610beb565b91507f4d7573742070617920746865207475746f7269616c20666f722074686520667560008301527f6c6c20616d6f756e742e000000000000000000000000000000000000000000006020830152604082019050919050565b6000610a51603383610beb565b91507f5475746f7269616c206973206e6f742066696e697368656420746f206265206360008301527f6f6e736964657265642066696e69736865642e000000000000000000000000006020830152604082019050919050565b610ab381610c4d565b82525050565b6000602082019050610ace60008301846108ed565b92915050565b6000602082019050610ae960008301846108fc565b92915050565b6000606082019050610b04600083018661090b565b610b116020830185610aaa565b610b1e6040830184610aaa565b949350505050565b6000608082019050610b3b600083018761091a565b610b486020830186610aaa565b610b556040830185610aaa565b610b626060830184610929565b95945050505050565b60006020820190508181036000830152610b8481610938565b9050919050565b60006020820190508181036000830152610ba48161099e565b9050919050565b60006020820190508181036000830152610bc4816109de565b9050919050565b60006020820190508181036000830152610be481610a44565b9050919050565b600082825260208201905092915050565b6000610c0782610c2d565b9050919050565b60008115159050919050565b6000819050610c2882610d58565b919050565b600073ffffffffffffffffffffffffffffffffffffffff82169050919050565b6000819050919050565b6000610c6282610c69565b9050919050565b6000610c7482610c2d565b9050919050565b6000610c8682610c8d565b9050919050565b6000610c9882610c2d565b9050919050565b6000610caa82610c1a565b9050919050565b6000610cbc82610c4d565b91507fffffffffffffffffffffffffffffffffffffffffffffffffffffffffffffffff821415610cef57610cee610cfa565b5b600182019050919050565b7f4e487b7100000000000000000000000000000000000000000000000000000000600052601160045260246000fd5b7f4e487b7100000000000000000000000000000000000000000000000000000000600052602160045260246000fd5b60038110610d6957610d68610d29565b5b50565b610d7581610c4d565b8114610d8057600080fd5b5056fe608060405234801561001057600080fd5b5060405161073d38038061073d833981810160405281019061003291906100b3565b816000819055508060018190555082600360006101000a81548173ffffffffffffffffffffffffffffffffffffffff021916908373ffffffffffffffffffffffffffffffffffffffff16021790555050505061017e565b60008151905061009881610150565b92915050565b6000815190506100ad81610167565b92915050565b6000806000606084860312156100c857600080fd5b60006100d686828701610089565b93505060206100e78682870161009e565b92505060406100f88682870161009e565b9150509250925092565b600061010d82610126565b9050919050565b600061011f82610102565b9050919050565b600073ffffffffffffffffffffffffffffffffffffffff82169050919050565b6000819050919050565b61015981610114565b811461016457600080fd5b50565b61017081610146565b811461017b57600080fd5b50565b6105b08061018d6000396000f3fe6080604052600436106100435760003560e01c8063216340c31461020d5780632986c0e514610238578063a035b1fe14610263578063e70e137d1461028e57610208565b366102085760006002541461008d576040517f08c379a000000000000000000000000000000000000000000000000000000000815260040161008490610412565b60405180910390fd5b346002600082825461009f9190610474565b925050819055506000600360009054906101000a900473ffffffffffffffffffffffffffffffffffffffff1673ffffffffffffffffffffffffffffffffffffffff16346000546040516024016100f59190610432565b6040516020818303038152906040527f9985f797000000000000000000000000000000000000000000000000000000007bffffffffffffffffffffffffffffffffffffffffffffffffffffffff19166020820180517bffffffffffffffffffffffffffffffffffffffffffffffffffffffff838183161783525050505060405161017f91906103c0565b60006040518083038185875af1925050503d80600081146101bc576040519150601f19603f3d011682016040523d82523d6000602084013e6101c1565b606091505b5050905080610205576040517f08c379a00000000000000000000000000000000000000000000000000000000081526004016101fc906103f2565b60405180910390fd5b50005b600080fd5b34801561021957600080fd5b506102226102b9565b60405161022f9190610432565b60405180910390f35b34801561024457600080fd5b5061024d6102bf565b60405161025a9190610432565b60405180910390f35b34801561026f57600080fd5b506102786102c5565b6040516102859190610432565b60405180910390f35b34801561029a57600080fd5b506102a36102cb565b6040516102b091906103d7565b60405180910390f35b60025481565b60005481565b60015481565b600360009054906101000a900473ffffffffffffffffffffffffffffffffffffffff1681565b60006102fc8261044d565b6103068185610458565b9350610316818560208601610518565b80840191505092915050565b61032b816104f4565b82525050565b600061033e601c83610463565b91507f507572636861736520776173206e6f74207375636365737366756c21000000006000830152602082019050919050565b600061037e601583610463565b91507f4d757374207061792066756c6c20616d6f756e742e00000000000000000000006000830152602082019050919050565b6103ba816104ea565b82525050565b60006103cc82846102f1565b915081905092915050565b60006020820190506103ec6000830184610322565b92915050565b6000602082019050818103600083015261040b81610331565b9050919050565b6000602082019050818103600083015261042b81610371565b9050919050565b600060208201905061044760008301846103b1565b92915050565b600081519050919050565b600081905092915050565b600082825260208201905092915050565b600061047f826104ea565b915061048a836104ea565b9250827fffffffffffffffffffffffffffffffffffffffffffffffffffffffffffffffff038211156104bf576104be61054b565b5b828201905092915050565b600073ffffffffffffffffffffffffffffffffffffffff82169050919050565b6000819050919050565b60006104ff82610506565b9050919050565b6000610511826104ca565b9050919050565b60005b8381101561053657808201518184015260208101905061051b565b83811115610545576000848401525b50505050565b7f4e487b7100000000000000000000000000000000000000000000000000000000600052601160045260246000fdfea26469706673582212209481260ae6ed9286c2c80c8fd9c4b9312a0e838bd956772a16476469bb0d65bc64736f6c63430008000033a2646970667358221220f4f925fd1b934694bba51b376d314a786c4efefd25e82a1469ea442b697948e464736f6c63430008000033",
  "immutableReferences": {},
  "source": "pragma solidity 0.8.0;\r\n\r\nimport \"./Tutorial.sol\";\r\nimport \"./Ownable.sol\";\r\n\r\n//Smart Contract responsible for creating, paying, and setting tutorial to finished.\r\ncontract TutorialManager is Ownable {\r\n    \r\n    enum TutorialState{NotPaid, Paid, Finished}\r\n    \r\n    struct Tutorial_Item {\r\n        Tutorial _tutorial;\r\n        uint _tutorialId;\r\n        uint _tutorialPrice;\r\n        TutorialManager.TutorialState _tutorialState;\r\n    }\r\n    \r\n    mapping(uint => Tutorial_Item) public tutorials;\r\n    \r\n    uint numberOfTutorials;\r\n    \r\n    event TutorialStateChanges(uint indexed _tutorialId, uint indexed _index, TutorialManager.TutorialState indexed _tutorialState);\r\n    \r\n    function createTutorial(uint _tutorialPrice, uint _tutorialId) public onlyOwner {\r\n        Tutorial tutorial = new Tutorial(this, numberOfTutorials, _tutorialPrice);\r\n        tutorials[numberOfTutorials]._tutorial = tutorial;\r\n        tutorials[numberOfTutorials]._tutorialPrice = _tutorialPrice;\r\n        tutorials[numberOfTutorials]._tutorialId = _tutorialId;\r\n        tutorials[numberOfTutorials]._tutorialState = TutorialState.NotPaid;\r\n        \r\n        emit TutorialStateChanges(tutorials[numberOfTutorials]._tutorialId, numberOfTutorials, TutorialState.NotPaid);\r\n        \r\n        numberOfTutorials++;\r\n    }\r\n    \r\n    function payForTutorial(uint _index) public payable {\r\n        require(tutorials[_index]._tutorialState == TutorialState.NotPaid, \"Tutorial is paid already.\");\r\n        require(tutorials[_index]._tutorialPrice == msg.value, \"Must pay the tutorial for the full amount.\");\r\n        tutorials[_index]._tutorialState = TutorialState.Paid;\r\n        \r\n        emit TutorialStateChanges(tutorials[_index]._tutorialId, _index, TutorialState.Paid);\r\n    }\r\n    \r\n    function finishTutorial(uint _index) public onlyOwner {\r\n        require(tutorials[_index]._tutorialState == TutorialState.Paid, \"Tutorial is not finished to be considered finished.\");\r\n        tutorials[_index]._tutorialState = TutorialState.Finished;\r\n        \r\n        emit TutorialStateChanges(tutorials[_index]._tutorialId, _index, TutorialState.Finished);\r\n    }\r\n    \r\n}",
  "sourcePath": "C:\\Users\\devmt\\blockchain_bootcamp\\truffle_tutorial_manager\\contracts\\TutorialManager.sol",
  "compiler": {
    "name": "solc",
    "version": "0.8.0+commit.c7dfd78e.Emscripten.clang"
  },
  "schemaVersion": "3.4.3",
  "updatedAt": "2021-11-06T21:05:50.287Z",
  "networkType": "ethereum",
  "devdoc": {
    "kind": "dev",
    "methods": {},
    "version": 1
  },
  "userdoc": {
    "kind": "user",
    "methods": {},
    "version": 1
  }
}